{
  "_format": "hh-sol-artifact-1",
  "contractName": "MyEpicNFT",
  "sourceName": "contracts/MyEpicNFT.sol",
  "abi": [
    {
      "inputs": [],
      "stateMutability": "nonpayable",
      "type": "constructor"
    },
    {
      "anonymous": false,
      "inputs": [
        {
          "indexed": true,
          "internalType": "address",
          "name": "owner",
          "type": "address"
        },
        {
          "indexed": true,
          "internalType": "address",
          "name": "approved",
          "type": "address"
        },
        {
          "indexed": true,
          "internalType": "uint256",
          "name": "tokenId",
          "type": "uint256"
        }
      ],
      "name": "Approval",
      "type": "event"
    },
    {
      "anonymous": false,
      "inputs": [
        {
          "indexed": true,
          "internalType": "address",
          "name": "owner",
          "type": "address"
        },
        {
          "indexed": true,
          "internalType": "address",
          "name": "operator",
          "type": "address"
        },
        {
          "indexed": false,
          "internalType": "bool",
          "name": "approved",
          "type": "bool"
        }
      ],
      "name": "ApprovalForAll",
      "type": "event"
    },
    {
      "anonymous": false,
      "inputs": [
        {
          "indexed": false,
          "internalType": "address",
          "name": "sender",
          "type": "address"
        },
        {
          "indexed": false,
          "internalType": "uint256",
          "name": "tokenId",
          "type": "uint256"
        }
      ],
      "name": "NewEpicNFTMinted",
      "type": "event"
    },
    {
      "anonymous": false,
      "inputs": [
        {
          "indexed": true,
          "internalType": "address",
          "name": "from",
          "type": "address"
        },
        {
          "indexed": true,
          "internalType": "address",
          "name": "to",
          "type": "address"
        },
        {
          "indexed": true,
          "internalType": "uint256",
          "name": "tokenId",
          "type": "uint256"
        }
      ],
      "name": "Transfer",
      "type": "event"
    },
    {
      "inputs": [],
      "name": "MAX_SUPPLY",
      "outputs": [
        {
          "internalType": "uint256",
          "name": "",
          "type": "uint256"
        }
      ],
      "stateMutability": "view",
      "type": "function"
    },
    {
      "inputs": [
        {
          "internalType": "address",
          "name": "to",
          "type": "address"
        },
        {
          "internalType": "uint256",
          "name": "tokenId",
          "type": "uint256"
        }
      ],
      "name": "approve",
      "outputs": [],
      "stateMutability": "nonpayable",
      "type": "function"
    },
    {
      "inputs": [
        {
          "internalType": "address",
          "name": "owner",
          "type": "address"
        }
      ],
      "name": "balanceOf",
      "outputs": [
        {
          "internalType": "uint256",
          "name": "",
          "type": "uint256"
        }
      ],
      "stateMutability": "view",
      "type": "function"
    },
    {
      "inputs": [
        {
          "internalType": "uint256",
          "name": "tokenId",
          "type": "uint256"
        }
      ],
      "name": "getApproved",
      "outputs": [
        {
          "internalType": "address",
          "name": "",
          "type": "address"
        }
      ],
      "stateMutability": "view",
      "type": "function"
    },
    {
      "inputs": [],
      "name": "getMintCount",
      "outputs": [
        {
          "internalType": "uint256",
          "name": "",
          "type": "uint256"
        }
      ],
      "stateMutability": "view",
      "type": "function"
    },
    {
      "inputs": [
        {
          "internalType": "address",
          "name": "owner",
          "type": "address"
        },
        {
          "internalType": "address",
          "name": "operator",
          "type": "address"
        }
      ],
      "name": "isApprovedForAll",
      "outputs": [
        {
          "internalType": "bool",
          "name": "",
          "type": "bool"
        }
      ],
      "stateMutability": "view",
      "type": "function"
    },
    {
      "inputs": [],
      "name": "makeAnEpicNFT",
      "outputs": [],
      "stateMutability": "nonpayable",
      "type": "function"
    },
    {
      "inputs": [],
      "name": "name",
      "outputs": [
        {
          "internalType": "string",
          "name": "",
          "type": "string"
        }
      ],
      "stateMutability": "view",
      "type": "function"
    },
    {
      "inputs": [
        {
          "internalType": "uint256",
          "name": "tokenId",
          "type": "uint256"
        }
      ],
      "name": "ownerOf",
      "outputs": [
        {
          "internalType": "address",
          "name": "",
          "type": "address"
        }
      ],
      "stateMutability": "view",
      "type": "function"
    },
    {
      "inputs": [
        {
          "internalType": "uint256",
          "name": "tokenId",
          "type": "uint256"
        }
      ],
      "name": "pickRandomFirstWord",
      "outputs": [
        {
          "internalType": "string",
          "name": "",
          "type": "string"
        }
      ],
      "stateMutability": "view",
      "type": "function"
    },
    {
      "inputs": [
        {
          "internalType": "uint256",
          "name": "tokenId",
          "type": "uint256"
        }
      ],
      "name": "pickRandomSecondWord",
      "outputs": [
        {
          "internalType": "string",
          "name": "",
          "type": "string"
        }
      ],
      "stateMutability": "view",
      "type": "function"
    },
    {
      "inputs": [
        {
          "internalType": "uint256",
          "name": "tokenId",
          "type": "uint256"
        }
      ],
      "name": "pickRandomThirdWord",
      "outputs": [
        {
          "internalType": "string",
          "name": "",
          "type": "string"
        }
      ],
      "stateMutability": "view",
      "type": "function"
    },
    {
      "inputs": [
        {
          "internalType": "address",
          "name": "from",
          "type": "address"
        },
        {
          "internalType": "address",
          "name": "to",
          "type": "address"
        },
        {
          "internalType": "uint256",
          "name": "tokenId",
          "type": "uint256"
        }
      ],
      "name": "safeTransferFrom",
      "outputs": [],
      "stateMutability": "nonpayable",
      "type": "function"
    },
    {
      "inputs": [
        {
          "internalType": "address",
          "name": "from",
          "type": "address"
        },
        {
          "internalType": "address",
          "name": "to",
          "type": "address"
        },
        {
          "internalType": "uint256",
          "name": "tokenId",
          "type": "uint256"
        },
        {
          "internalType": "bytes",
          "name": "_data",
          "type": "bytes"
        }
      ],
      "name": "safeTransferFrom",
      "outputs": [],
      "stateMutability": "nonpayable",
      "type": "function"
    },
    {
      "inputs": [
        {
          "internalType": "address",
          "name": "operator",
          "type": "address"
        },
        {
          "internalType": "bool",
          "name": "approved",
          "type": "bool"
        }
      ],
      "name": "setApprovalForAll",
      "outputs": [],
      "stateMutability": "nonpayable",
      "type": "function"
    },
    {
      "inputs": [
        {
          "internalType": "bytes4",
          "name": "interfaceId",
          "type": "bytes4"
        }
      ],
      "name": "supportsInterface",
      "outputs": [
        {
          "internalType": "bool",
          "name": "",
          "type": "bool"
        }
      ],
      "stateMutability": "view",
      "type": "function"
    },
    {
      "inputs": [],
      "name": "symbol",
      "outputs": [
        {
          "internalType": "string",
          "name": "",
          "type": "string"
        }
      ],
      "stateMutability": "view",
      "type": "function"
    },
    {
      "inputs": [
        {
          "internalType": "uint256",
          "name": "tokenId",
          "type": "uint256"
        }
      ],
      "name": "tokenURI",
      "outputs": [
        {
          "internalType": "string",
          "name": "",
          "type": "string"
        }
      ],
      "stateMutability": "view",
      "type": "function"
    },
    {
      "inputs": [
        {
          "internalType": "address",
          "name": "from",
          "type": "address"
        },
        {
          "internalType": "address",
          "name": "to",
          "type": "address"
        },
        {
          "internalType": "uint256",
          "name": "tokenId",
          "type": "uint256"
        }
      ],
      "name": "transferFrom",
      "outputs": [],
      "stateMutability": "nonpayable",
      "type": "function"
    }
  ],
  "bytecode": "0x608060405260405180610160016040528061012f8152602001620045a161012f913960089080519060200190620000389291906200067e565b506040518060c001604052806040518060400160405280600481526020017f457069630000000000000000000000000000000000000000000000000000000081525081526020016040518060400160405280600981526020017f46616e746173746963000000000000000000000000000000000000000000000081525081526020016040518060400160405280600581526020017f437275646500000000000000000000000000000000000000000000000000000081525081526020016040518060400160405280600581526020017f4372617a7900000000000000000000000000000000000000000000000000000081525081526020016040518060400160405280600a81526020017f4879737465726963616c0000000000000000000000000000000000000000000081525081526020016040518060400160405280600581526020017f4772616e640000000000000000000000000000000000000000000000000000008152508152506009906006620001b69291906200070f565b506040518060c001604052806040518060400160405280600481526020017f4d6574610000000000000000000000000000000000000000000000000000000081525081526020016040518060400160405280600481526020017f4c6976650000000000000000000000000000000000000000000000000000000081525081526020016040518060400160405280600381526020017f506f70000000000000000000000000000000000000000000000000000000000081525081526020016040518060400160405280600481526020017f437574650000000000000000000000000000000000000000000000000000000081525081526020016040518060400160405280600581526020017f537765657400000000000000000000000000000000000000000000000000000081525081526020016040518060400160405280600381526020017f486f740000000000000000000000000000000000000000000000000000000000815250815250600a906006620003349291906200070f565b506040518060c001604052806040518060400160405280600681526020017f4b697474656e000000000000000000000000000000000000000000000000000081525081526020016040518060400160405280600581526020017f507570707900000000000000000000000000000000000000000000000000000081525081526020016040518060400160405280600681526020017f4d6f6e6b6579000000000000000000000000000000000000000000000000000081525081526020016040518060400160405280600481526020017f426972640000000000000000000000000000000000000000000000000000000081525081526020016040518060400160405280600581526020017f50616e646100000000000000000000000000000000000000000000000000000081525081526020016040518060400160405280600881526020017f456c657068616e74000000000000000000000000000000000000000000000000815250815250600b906006620004b29291906200070f565b50348015620004c057600080fd5b506040518060400160405280600981526020017f5371756172654e465400000000000000000000000000000000000000000000008152506040518060400160405280600681526020017f53515541524500000000000000000000000000000000000000000000000000008152508160009080519060200190620005459291906200067e565b5080600190805190602001906200055e9291906200067e565b505050620005ac6040518060400160405280601881526020017f54686973206973206d79204e465420636f6e74726163742e0000000000000000815250620005b260201b620011e51760201c565b62000930565b6200065281604051602401620005c9919062000844565b6040516020818303038152906040527f41304fac000000000000000000000000000000000000000000000000000000007bffffffffffffffffffffffffffffffffffffffffffffffffffffffff19166020820180517bffffffffffffffffffffffffffffffffffffffffffffffffffffffff83818316178352505050506200065560201b60201c565b50565b60008151905060006a636f6e736f6c652e6c6f679050602083016000808483855afa5050505050565b8280546200068c90620008ba565b90600052602060002090601f016020900481019282620006b05760008555620006fc565b82601f10620006cb57805160ff1916838001178555620006fc565b82800160010185558215620006fc579182015b82811115620006fb578251825591602001919060010190620006de565b5b5090506200070b919062000776565b5090565b82805482825590600052602060002090810192821562000763579160200282015b8281111562000762578251829080519060200190620007519291906200067e565b509160200191906001019062000730565b5b50905062000772919062000795565b5090565b5b808211156200079157600081600090555060010162000777565b5090565b5b80821115620007b95760008181620007af9190620007bd565b5060010162000796565b5090565b508054620007cb90620008ba565b6000825580601f10620007df575062000800565b601f016020900490600052602060002090810190620007ff919062000776565b5b50565b6000620008108262000868565b6200081c818562000873565b93506200082e81856020860162000884565b62000839816200091f565b840191505092915050565b6000602082019050818103600083015262000860818462000803565b905092915050565b600081519050919050565b600082825260208201905092915050565b60005b83811015620008a457808201518184015260208101905062000887565b83811115620008b4576000848401525b50505050565b60006002820490506001821680620008d357607f821691505b60208210811415620008ea57620008e9620008f0565b5b50919050565b7f4e487b7100000000000000000000000000000000000000000000000000000000600052602260045260246000fd5b6000601f19601f8301169050919050565b613c6180620009406000396000f3fe608060405234801561001057600080fd5b50600436106101215760003560e01c806370a08231116100ad578063b88d4fde11610071578063b88d4fde1461032e578063c575757a1461034a578063c87b56dd1461037a578063de9d132f146103aa578063e985e9c5146103b457610121565b806370a08231146102765780638fc3b549146102a657806395d89b41146102c4578063a22cb465146102e2578063b187301f146102fe57610121565b806323b872dd116100f457806323b872dd146101c05780632de38d68146101dc57806332cb6b0c1461020c57806342842e0e1461022a5780636352211e1461024657610121565b806301ffc9a71461012657806306fdde0314610156578063081812fc14610174578063095ea7b3146101a4575b600080fd5b610140600480360381019061013b91906126ad565b6103e4565b60405161014d9190612dda565b60405180910390f35b61015e6104c6565b60405161016b9190612df5565b60405180910390f35b61018e600480360381019061018991906126ff565b610558565b60405161019b9190612d4a565b60405180910390f35b6101be60048036038101906101b99190612671565b6105dd565b005b6101da60048036038101906101d5919061256b565b6106f5565b005b6101f660048036038101906101f191906126ff565b610755565b6040516102039190612df5565b60405180910390f35b6102146108f1565b60405161022191906130a5565b60405180910390f35b610244600480360381019061023f919061256b565b6108f6565b005b610260600480360381019061025b91906126ff565b610916565b60405161026d9190612d4a565b60405180910390f35b610290600480360381019061028b9190612506565b6109c8565b60405161029d91906130a5565b60405180910390f35b6102ae610a80565b6040516102bb91906130a5565b60405180910390f35b6102cc610a91565b6040516102d99190612df5565b60405180910390f35b6102fc60048036038101906102f79190612635565b610b23565b005b610318600480360381019061031391906126ff565b610b39565b6040516103259190612df5565b60405180910390f35b610348600480360381019061034391906125ba565b610c57565b005b610364600480360381019061035f91906126ff565b610cb9565b6040516103719190612df5565b60405180910390f35b610394600480360381019061038f91906126ff565b610dd7565b6040516103a19190612df5565b60405180910390f35b6103b2610f29565b005b6103ce60048036038101906103c9919061252f565b611151565b6040516103db9190612dda565b60405180910390f35b60007f80ac58cd000000000000000000000000000000000000000000000000000000007bffffffffffffffffffffffffffffffffffffffffffffffffffffffff1916827bffffffffffffffffffffffffffffffffffffffffffffffffffffffff191614806104af57507f5b5e139f000000000000000000000000000000000000000000000000000000007bffffffffffffffffffffffffffffffffffffffffffffffffffffffff1916827bffffffffffffffffffffffffffffffffffffffffffffffffffffffff1916145b806104bf57506104be8261127e565b5b9050919050565b6060600080546104d590613339565b80601f016020809104026020016040519081016040528092919081815260200182805461050190613339565b801561054e5780601f106105235761010080835404028352916020019161054e565b820191906000526020600020905b81548152906001019060200180831161053157829003601f168201915b5050505050905090565b6000610563826112e8565b6105a2576040517f08c379a000000000000000000000000000000000000000000000000000000000815260040161059990613025565b60405180910390fd5b6004600083815260200190815260200160002060009054906101000a900473ffffffffffffffffffffffffffffffffffffffff169050919050565b60006105e882610916565b90508073ffffffffffffffffffffffffffffffffffffffff168373ffffffffffffffffffffffffffffffffffffffff161415610659576040517f08c379a000000000000000000000000000000000000000000000000000000000815260040161065090613065565b60405180910390fd5b8073ffffffffffffffffffffffffffffffffffffffff16610678611354565b73ffffffffffffffffffffffffffffffffffffffff1614806106a757506106a6816106a1611354565b611151565b5b6106e6576040517f08c379a00000000000000000000000000000000000000000000000000000000081526004016106dd90612f65565b60405180910390fd5b6106f0838361135c565b505050565b610706610700611354565b82611415565b610745576040517f08c379a000000000000000000000000000000000000000000000000000000000815260040161073c90613085565b60405180910390fd5b6107508383836114f3565b505050565b606060006107896107658461175a565b6040516020016107759190612d06565b604051602081830303815290604052611907565b90506107ca6040518060400160405280600b81526020017f72616e6420736565643a200000000000000000000000000000000000000000008152508261193a565b600980549050816107db91906133e5565b905061081c6040518060400160405280601181526020017f72616e6420666972737420776f72643a200000000000000000000000000000008152508261193a565b60098181548110610856577f4e487b7100000000000000000000000000000000000000000000000000000000600052603260045260246000fd5b90600052602060002001805461086b90613339565b80601f016020809104026020016040519081016040528092919081815260200182805461089790613339565b80156108e45780601f106108b9576101008083540402835291602001916108e4565b820191906000526020600020905b8154815290600101906020018083116108c757829003601f168201915b5050505050915050919050565b603281565b61091183838360405180602001604052806000815250610c57565b505050565b6000806002600084815260200190815260200160002060009054906101000a900473ffffffffffffffffffffffffffffffffffffffff169050600073ffffffffffffffffffffffffffffffffffffffff168173ffffffffffffffffffffffffffffffffffffffff1614156109bf576040517f08c379a00000000000000000000000000000000000000000000000000000000081526004016109b690612fa5565b60405180910390fd5b80915050919050565b60008073ffffffffffffffffffffffffffffffffffffffff168273ffffffffffffffffffffffffffffffffffffffff161415610a39576040517f08c379a0000000000000000000000000000000000000000000000000000000008152600401610a3090612f85565b60405180910390fd5b600360008373ffffffffffffffffffffffffffffffffffffffff1673ffffffffffffffffffffffffffffffffffffffff168152602001908152602001600020549050919050565b6000610a8c60076119d6565b905090565b606060018054610aa090613339565b80601f0160208091040260200160405190810160405280929190818152602001828054610acc90613339565b8015610b195780601f10610aee57610100808354040283529160200191610b19565b820191906000526020600020905b815481529060010190602001808311610afc57829003601f168201915b5050505050905090565b610b35610b2e611354565b83836119e4565b5050565b60606000610b6d610b498461175a565b604051602001610b599190612c9f565b604051602081830303815290604052611907565b9050600a8054905081610b8091906133e5565b9050600a8181548110610bbc577f4e487b7100000000000000000000000000000000000000000000000000000000600052603260045260246000fd5b906000526020600020018054610bd190613339565b80601f0160208091040260200160405190810160405280929190818152602001828054610bfd90613339565b8015610c4a5780601f10610c1f57610100808354040283529160200191610c4a565b820191906000526020600020905b815481529060010190602001808311610c2d57829003601f168201915b5050505050915050919050565b610c68610c62611354565b83611415565b610ca7576040517f08c379a0000000000000000000000000000000000000000000000000000000008152600401610c9e90613085565b60405180910390fd5b610cb384848484611b51565b50505050565b60606000610ced610cc98461175a565b604051602001610cd99190612c7d565b604051602081830303815290604052611907565b9050600b8054905081610d0091906133e5565b9050600b8181548110610d3c577f4e487b7100000000000000000000000000000000000000000000000000000000600052603260045260246000fd5b906000526020600020018054610d5190613339565b80601f0160208091040260200160405190810160405280929190818152602001828054610d7d90613339565b8015610dca5780601f10610d9f57610100808354040283529160200191610dca565b820191906000526020600020905b815481529060010190602001808311610dad57829003601f168201915b5050505050915050919050565b6060610de2826112e8565b610e21576040517f08c379a0000000000000000000000000000000000000000000000000000000008152600401610e1890613005565b60405180910390fd5b6000600660008481526020019081526020016000208054610e4190613339565b80601f0160208091040260200160405190810160405280929190818152602001828054610e6d90613339565b8015610eba5780601f10610e8f57610100808354040283529160200191610eba565b820191906000526020600020905b815481529060010190602001808311610e9d57829003601f168201915b505050505090506000610ecb611bad565b9050600081511415610ee1578192505050610f24565b600082511115610f16578082604051602001610efe929190612bf9565b60405160208183030381529060405292505050610f24565b610f1f84611bc4565b925050505b919050565b6000610f33610a80565b90506000610f4082610755565b90506000610f4d83610b39565b90506000610f5a84610cb9565b90506000838383604051602001610f7393929190612c1d565b60405160208183030381529060405290506000600882604051602001610f9a929190612c4e565b60405160208183030381529060405290506000610fdf83610fba84611c6b565b604051602001610fcb929190612cc1565b604051602081830303815290604052611c6b565b9050600081604051602001610ff49190612d28565b60405160208183030381529060405290506110436040518060400160405280601581526020017f0a2d2d2d2d2d2d2d2d2d2d2d2d2d2d2d2d2d2d2d2d00000000000000000000008152506111e5565b61104c816111e5565b61108a6040518060400160405280601581526020017f2d2d2d2d2d2d2d2d2d2d2d2d2d2d2d2d2d2d2d2d0a00000000000000000000008152506111e5565b603288106110cd576040517f08c379a00000000000000000000000000000000000000000000000000000000081526004016110c490612e85565b60405180910390fd5b6110d73389611e29565b6110e18882611e47565b611104604051806060016040528060258152602001613bc7602591398933611ebb565b61110e6007611f5a565b7febb98688741ffa4c7589bf325de30cf7becb63de567842e1ccdb6cb949fdc82c338960405161113f929190612db1565b60405180910390a15050505050505050565b6000600560008473ffffffffffffffffffffffffffffffffffffffff1673ffffffffffffffffffffffffffffffffffffffff16815260200190815260200160002060008373ffffffffffffffffffffffffffffffffffffffff1673ffffffffffffffffffffffffffffffffffffffff16815260200190815260200160002060009054906101000a900460ff16905092915050565b61127b816040516024016111f99190612df5565b6040516020818303038152906040527f41304fac000000000000000000000000000000000000000000000000000000007bffffffffffffffffffffffffffffffffffffffffffffffffffffffff19166020820180517bffffffffffffffffffffffffffffffffffffffffffffffffffffffff8381831617835250505050611f70565b50565b60007f01ffc9a7000000000000000000000000000000000000000000000000000000007bffffffffffffffffffffffffffffffffffffffffffffffffffffffff1916827bffffffffffffffffffffffffffffffffffffffffffffffffffffffff1916149050919050565b60008073ffffffffffffffffffffffffffffffffffffffff166002600084815260200190815260200160002060009054906101000a900473ffffffffffffffffffffffffffffffffffffffff1673ffffffffffffffffffffffffffffffffffffffff1614159050919050565b600033905090565b816004600083815260200190815260200160002060006101000a81548173ffffffffffffffffffffffffffffffffffffffff021916908373ffffffffffffffffffffffffffffffffffffffff160217905550808273ffffffffffffffffffffffffffffffffffffffff166113cf83610916565b73ffffffffffffffffffffffffffffffffffffffff167f8c5be1e5ebec7d5bd14f71427d1e84f3dd0314c0f7b2291e5b200ac8c7c3b92560405160405180910390a45050565b6000611420826112e8565b61145f576040517f08c379a000000000000000000000000000000000000000000000000000000000815260040161145690612f45565b60405180910390fd5b600061146a83610916565b90508073ffffffffffffffffffffffffffffffffffffffff168473ffffffffffffffffffffffffffffffffffffffff1614806114d957508373ffffffffffffffffffffffffffffffffffffffff166114c184610558565b73ffffffffffffffffffffffffffffffffffffffff16145b806114ea57506114e98185611151565b5b91505092915050565b8273ffffffffffffffffffffffffffffffffffffffff1661151382610916565b73ffffffffffffffffffffffffffffffffffffffff1614611569576040517f08c379a000000000000000000000000000000000000000000000000000000000815260040161156090612ec5565b60405180910390fd5b600073ffffffffffffffffffffffffffffffffffffffff168273ffffffffffffffffffffffffffffffffffffffff1614156115d9576040517f08c379a00000000000000000000000000000000000000000000000000000000081526004016115d090612f05565b60405180910390fd5b6115e4838383611f99565b6115ef60008261135c565b6001600360008573ffffffffffffffffffffffffffffffffffffffff1673ffffffffffffffffffffffffffffffffffffffff168152602001908152602001600020600082825461163f919061324f565b925050819055506001600360008473ffffffffffffffffffffffffffffffffffffffff1673ffffffffffffffffffffffffffffffffffffffff1681526020019081526020016000206000828254611696919061316e565b92505081905550816002600083815260200190815260200160002060006101000a81548173ffffffffffffffffffffffffffffffffffffffff021916908373ffffffffffffffffffffffffffffffffffffffff160217905550808273ffffffffffffffffffffffffffffffffffffffff168473ffffffffffffffffffffffffffffffffffffffff167fddf252ad1be2c89b69c2b068fc378daa952ba7f163c4a11628f55a4df523b3ef60405160405180910390a4611755838383611f9e565b505050565b606060008214156117a2576040518060400160405280600181526020017f30000000000000000000000000000000000000000000000000000000000000008152509050611902565b600082905060005b600082146117d45780806117bd9061339c565b915050600a826117cd91906131c4565b91506117aa565b60008167ffffffffffffffff811115611816577f4e487b7100000000000000000000000000000000000000000000000000000000600052604160045260246000fd5b6040519080825280601f01601f1916602001820160405280156118485781602001600182028036833780820191505090505b5090505b600085146118fb57600182611861919061324f565b9150600a8561187091906133e5565b603061187c919061316e565b60f81b8183815181106118b8577f4e487b7100000000000000000000000000000000000000000000000000000000600052603260045260246000fd5b60200101907effffffffffffffffffffffffffffffffffffffffffffffffffffffffffffff1916908160001a905350600a856118f491906131c4565b945061184c565b8093505050505b919050565b60008160405160200161191a9190612be2565b6040516020818303038152906040528051906020012060001c9050919050565b6119d28282604051602401611950929190612e17565b6040516020818303038152906040527f9710a9d0000000000000000000000000000000000000000000000000000000007bffffffffffffffffffffffffffffffffffffffffffffffffffffffff19166020820180517bffffffffffffffffffffffffffffffffffffffffffffffffffffffff8381831617835250505050611f70565b5050565b600081600001549050919050565b8173ffffffffffffffffffffffffffffffffffffffff168373ffffffffffffffffffffffffffffffffffffffff161415611a53576040517f08c379a0000000000000000000000000000000000000000000000000000000008152600401611a4a90612f25565b60405180910390fd5b80600560008573ffffffffffffffffffffffffffffffffffffffff1673ffffffffffffffffffffffffffffffffffffffff16815260200190815260200160002060008473ffffffffffffffffffffffffffffffffffffffff1673ffffffffffffffffffffffffffffffffffffffff16815260200190815260200160002060006101000a81548160ff0219169083151502179055508173ffffffffffffffffffffffffffffffffffffffff168373ffffffffffffffffffffffffffffffffffffffff167f17307eab39ab6107e8899845ad3d59bd9653f200f220920489ca2b5937696c3183604051611b449190612dda565b60405180910390a3505050565b611b5c8484846114f3565b611b6884848484611fa3565b611ba7576040517f08c379a0000000000000000000000000000000000000000000000000000000008152600401611b9e90612ea5565b60405180910390fd5b50505050565b606060405180602001604052806000815250905090565b6060611bcf826112e8565b611c0e576040517f08c379a0000000000000000000000000000000000000000000000000000000008152600401611c0590613045565b60405180910390fd5b6000611c18611bad565b90506000815111611c385760405180602001604052806000815250611c63565b80611c428461175a565b604051602001611c53929190612bf9565b6040516020818303038152906040525b915050919050565b60606000825190506000811415611c945760405180602001604052806000815250915050611e24565b60006003600283611ca5919061316e565b611caf91906131c4565b6004611cbb91906131f5565b90506000602082611ccc919061316e565b67ffffffffffffffff811115611d0b577f4e487b7100000000000000000000000000000000000000000000000000000000600052604160045260246000fd5b6040519080825280601f01601f191660200182016040528015611d3d5781602001600182028036833780820191505090505b5090506000604051806060016040528060408152602001613bec604091399050600181016020830160005b86811015611de15760038101905062ffffff818a015116603f8160121c168401518060081b905060ff603f83600c1c1686015116810190508060081b905060ff603f8360061c1686015116810190508060081b905060ff603f831686015116810190508060e01b90508084526004840193505050611d68565b506003860660018114611dfb5760028114611e0b57611e16565b613d3d60f01b6002830352611e16565b603d60f81b60018303525b508484525050819450505050505b919050565b611e4382826040518060200160405280600081525061213a565b5050565b611e50826112e8565b611e8f576040517f08c379a0000000000000000000000000000000000000000000000000000000008152600401611e8690612fc5565b60405180910390fd5b80600660008481526020019081526020016000209080519060200190611eb6929190612392565b505050565b611f55838383604051602401611ed393929190612e47565b6040516020818303038152906040527fe3849f79000000000000000000000000000000000000000000000000000000007bffffffffffffffffffffffffffffffffffffffffffffffffffffffff19166020820180517bffffffffffffffffffffffffffffffffffffffffffffffffffffffff8381831617835250505050611f70565b505050565b6001816000016000828254019250508190555050565b60008151905060006a636f6e736f6c652e6c6f679050602083016000808483855afa5050505050565b505050565b505050565b6000611fc48473ffffffffffffffffffffffffffffffffffffffff16612195565b1561212d578373ffffffffffffffffffffffffffffffffffffffff1663150b7a02611fed611354565b8786866040518563ffffffff1660e01b815260040161200f9493929190612d65565b602060405180830381600087803b15801561202957600080fd5b505af192505050801561205a57506040513d601f19601f8201168201806040525081019061205791906126d6565b60015b6120dd573d806000811461208a576040519150601f19603f3d011682016040523d82523d6000602084013e61208f565b606091505b506000815114156120d5576040517f08c379a00000000000000000000000000000000000000000000000000000000081526004016120cc90612ea5565b60405180910390fd5b805181602001fd5b63150b7a0260e01b7bffffffffffffffffffffffffffffffffffffffffffffffffffffffff1916817bffffffffffffffffffffffffffffffffffffffffffffffffffffffff191614915050612132565b600190505b949350505050565b61214483836121b8565b6121516000848484611fa3565b612190576040517f08c379a000000000000000000000000000000000000000000000000000000000815260040161218790612ea5565b60405180910390fd5b505050565b6000808273ffffffffffffffffffffffffffffffffffffffff163b119050919050565b600073ffffffffffffffffffffffffffffffffffffffff168273ffffffffffffffffffffffffffffffffffffffff161415612228576040517f08c379a000000000000000000000000000000000000000000000000000000000815260040161221f90612fe5565b60405180910390fd5b612231816112e8565b15612271576040517f08c379a000000000000000000000000000000000000000000000000000000000815260040161226890612ee5565b60405180910390fd5b61227d60008383611f99565b6001600360008473ffffffffffffffffffffffffffffffffffffffff1673ffffffffffffffffffffffffffffffffffffffff16815260200190815260200160002060008282546122cd919061316e565b92505081905550816002600083815260200190815260200160002060006101000a81548173ffffffffffffffffffffffffffffffffffffffff021916908373ffffffffffffffffffffffffffffffffffffffff160217905550808273ffffffffffffffffffffffffffffffffffffffff16600073ffffffffffffffffffffffffffffffffffffffff167fddf252ad1be2c89b69c2b068fc378daa952ba7f163c4a11628f55a4df523b3ef60405160405180910390a461238e60008383611f9e565b5050565b82805461239e90613339565b90600052602060002090601f0160209004810192826123c05760008555612407565b82601f106123d957805160ff1916838001178555612407565b82800160010185558215612407579182015b828111156124065782518255916020019190600101906123eb565b5b5090506124149190612418565b5090565b5b80821115612431576000816000905550600101612419565b5090565b6000612448612443846130e5565b6130c0565b90508281526020810184848401111561246057600080fd5b61246b8482856132f7565b509392505050565b60008135905061248281613b6a565b92915050565b60008135905061249781613b81565b92915050565b6000813590506124ac81613b98565b92915050565b6000815190506124c181613b98565b92915050565b600082601f8301126124d857600080fd5b81356124e8848260208601612435565b91505092915050565b60008135905061250081613baf565b92915050565b60006020828403121561251857600080fd5b600061252684828501612473565b91505092915050565b6000806040838503121561254257600080fd5b600061255085828601612473565b925050602061256185828601612473565b9150509250929050565b60008060006060848603121561258057600080fd5b600061258e86828701612473565b935050602061259f86828701612473565b92505060406125b0868287016124f1565b9150509250925092565b600080600080608085870312156125d057600080fd5b60006125de87828801612473565b94505060206125ef87828801612473565b9350506040612600878288016124f1565b925050606085013567ffffffffffffffff81111561261d57600080fd5b612629878288016124c7565b91505092959194509250565b6000806040838503121561264857600080fd5b600061265685828601612473565b925050602061266785828601612488565b9150509250929050565b6000806040838503121561268457600080fd5b600061269285828601612473565b92505060206126a3858286016124f1565b9150509250929050565b6000602082840312156126bf57600080fd5b60006126cd8482850161249d565b91505092915050565b6000602082840312156126e857600080fd5b60006126f6848285016124b2565b91505092915050565b60006020828403121561271157600080fd5b600061271f848285016124f1565b91505092915050565b61273181613283565b82525050565b61274081613295565b82525050565b60006127518261312b565b61275b8185613141565b935061276b818560208601613306565b612774816134d2565b840191505092915050565b600061278a82613136565b6127948185613152565b93506127a4818560208601613306565b6127ad816134d2565b840191505092915050565b60006127c382613136565b6127cd8185613163565b93506127dd818560208601613306565b80840191505092915050565b600081546127f681613339565b6128008186613163565b9450600182166000811461281b576001811461282c5761285f565b60ff1983168652818601935061285f565b61283585613116565b60005b8381101561285757815481890152600182019150602081019050612838565b838801955050505b50505092915050565b6000612875602583613152565b9150612880826134e3565b604082019050919050565b6000612898603283613152565b91506128a382613532565b604082019050919050565b60006128bb602583613152565b91506128c682613581565b604082019050919050565b60006128de601c83613152565b91506128e9826135d0565b602082019050919050565b6000612901600a83613163565b915061290c826135f9565b600a82019050919050565b6000612924602483613152565b915061292f82613622565b604082019050919050565b6000612947601983613152565b915061295282613671565b602082019050919050565b600061296a606383613163565b91506129758261369a565b606382019050919050565b600061298d600b83613163565b915061299882613735565b600b82019050919050565b60006129b0602c83613152565b91506129bb8261375e565b604082019050919050565b60006129d3600d83613163565b91506129de826137ad565b600d82019050919050565b60006129f6603883613152565b9150612a01826137d6565b604082019050919050565b6000612a19602a83613152565b9150612a2482613825565b604082019050919050565b6000612a3c602983613152565b9150612a4782613874565b604082019050919050565b6000612a5f602e83613152565b9150612a6a826138c3565b604082019050919050565b6000612a82600283613163565b9150612a8d82613912565b600282019050919050565b6000612aa5602083613152565b9150612ab08261393b565b602082019050919050565b6000612ac8603183613152565b9150612ad382613964565b604082019050919050565b6000612aeb602c83613152565b9150612af6826139b3565b604082019050919050565b6000612b0e602f83613152565b9150612b1982613a02565b604082019050919050565b6000612b31600a83613163565b9150612b3c82613a51565b600a82019050919050565b6000612b54602183613152565b9150612b5f82613a7a565b604082019050919050565b6000612b77600a83613163565b9150612b8282613ac9565b600a82019050919050565b6000612b9a601d83613163565b9150612ba582613af2565b601d82019050919050565b6000612bbd603183613152565b9150612bc882613b1b565b604082019050919050565b612bdc816132ed565b82525050565b6000612bee82846127b8565b915081905092915050565b6000612c0582856127b8565b9150612c1182846127b8565b91508190509392505050565b6000612c2982866127b8565b9150612c3582856127b8565b9150612c4182846127b8565b9150819050949350505050565b6000612c5a82856127e9565b9150612c6682846127b8565b9150612c71826129c6565b91508190509392505050565b6000612c88826128f4565b9150612c9482846127b8565b915081905092915050565b6000612caa82612980565b9150612cb682846127b8565b915081905092915050565b6000612ccc82612b24565b9150612cd882856127b8565b9150612ce38261295d565b9150612cef82846127b8565b9150612cfa82612a75565b91508190509392505050565b6000612d1182612b6a565b9150612d1d82846127b8565b915081905092915050565b6000612d3382612b8d565b9150612d3f82846127b8565b915081905092915050565b6000602082019050612d5f6000830184612728565b92915050565b6000608082019050612d7a6000830187612728565b612d876020830186612728565b612d946040830185612bd3565b8181036060830152612da68184612746565b905095945050505050565b6000604082019050612dc66000830185612728565b612dd36020830184612bd3565b9392505050565b6000602082019050612def6000830184612737565b92915050565b60006020820190508181036000830152612e0f818461277f565b905092915050565b60006040820190508181036000830152612e31818561277f565b9050612e406020830184612bd3565b9392505050565b60006060820190508181036000830152612e61818661277f565b9050612e706020830185612bd3565b612e7d6040830184612728565b949350505050565b60006020820190508181036000830152612e9e81612868565b9050919050565b60006020820190508181036000830152612ebe8161288b565b9050919050565b60006020820190508181036000830152612ede816128ae565b9050919050565b60006020820190508181036000830152612efe816128d1565b9050919050565b60006020820190508181036000830152612f1e81612917565b9050919050565b60006020820190508181036000830152612f3e8161293a565b9050919050565b60006020820190508181036000830152612f5e816129a3565b9050919050565b60006020820190508181036000830152612f7e816129e9565b9050919050565b60006020820190508181036000830152612f9e81612a0c565b9050919050565b60006020820190508181036000830152612fbe81612a2f565b9050919050565b60006020820190508181036000830152612fde81612a52565b9050919050565b60006020820190508181036000830152612ffe81612a98565b9050919050565b6000602082019050818103600083015261301e81612abb565b9050919050565b6000602082019050818103600083015261303e81612ade565b9050919050565b6000602082019050818103600083015261305e81612b01565b9050919050565b6000602082019050818103600083015261307e81612b47565b9050919050565b6000602082019050818103600083015261309e81612bb0565b9050919050565b60006020820190506130ba6000830184612bd3565b92915050565b60006130ca6130db565b90506130d6828261336b565b919050565b6000604051905090565b600067ffffffffffffffff821115613100576130ff6134a3565b5b613109826134d2565b9050602081019050919050565b60008190508160005260206000209050919050565b600081519050919050565b600081519050919050565b600082825260208201905092915050565b600082825260208201905092915050565b600081905092915050565b6000613179826132ed565b9150613184836132ed565b9250827fffffffffffffffffffffffffffffffffffffffffffffffffffffffffffffffff038211156131b9576131b8613416565b5b828201905092915050565b60006131cf826132ed565b91506131da836132ed565b9250826131ea576131e9613445565b5b828204905092915050565b6000613200826132ed565b915061320b836132ed565b9250817fffffffffffffffffffffffffffffffffffffffffffffffffffffffffffffffff048311821515161561324457613243613416565b5b828202905092915050565b600061325a826132ed565b9150613265836132ed565b92508282101561327857613277613416565b5b828203905092915050565b600061328e826132cd565b9050919050565b60008115159050919050565b60007fffffffff0000000000000000000000000000000000000000000000000000000082169050919050565b600073ffffffffffffffffffffffffffffffffffffffff82169050919050565b6000819050919050565b82818337600083830152505050565b60005b83811015613324578082015181840152602081019050613309565b83811115613333576000848401525b50505050565b6000600282049050600182168061335157607f821691505b6020821081141561336557613364613474565b5b50919050565b613374826134d2565b810181811067ffffffffffffffff82111715613393576133926134a3565b5b80604052505050565b60006133a7826132ed565b91507fffffffffffffffffffffffffffffffffffffffffffffffffffffffffffffffff8214156133da576133d9613416565b5b600182019050919050565b60006133f0826132ed565b91506133fb836132ed565b92508261340b5761340a613445565b5b828206905092915050565b7f4e487b7100000000000000000000000000000000000000000000000000000000600052601160045260246000fd5b7f4e487b7100000000000000000000000000000000000000000000000000000000600052601260045260246000fd5b7f4e487b7100000000000000000000000000000000000000000000000000000000600052602260045260246000fd5b7f4e487b7100000000000000000000000000000000000000000000000000000000600052604160045260246000fd5b6000601f19601f8301169050919050565b7f4e46542069737375616e6365206c696d69747320686173206265656e2072656160008201527f636865642e000000000000000000000000000000000000000000000000000000602082015250565b7f4552433732313a207472616e7366657220746f206e6f6e20455243373231526560008201527f63656976657220696d706c656d656e7465720000000000000000000000000000602082015250565b7f4552433732313a207472616e736665722066726f6d20696e636f72726563742060008201527f6f776e6572000000000000000000000000000000000000000000000000000000602082015250565b7f4552433732313a20746f6b656e20616c7265616479206d696e74656400000000600082015250565b7f54484952445f574f524400000000000000000000000000000000000000000000600082015250565b7f4552433732313a207472616e7366657220746f20746865207a65726f2061646460008201527f7265737300000000000000000000000000000000000000000000000000000000602082015250565b7f4552433732313a20617070726f766520746f2063616c6c657200000000000000600082015250565b7f222c20226465736372697074696f6e223a20224120686967686c79206163636c60008201527f61696d656420636f6c6c656374696f6e206f6620737175617265732e222c202260208201527f696d616765223a2022646174613a696d6167652f7376672b786d6c3b6261736560408201527f36342c0000000000000000000000000000000000000000000000000000000000606082015250565b7f5345434f4e445f574f5244000000000000000000000000000000000000000000600082015250565b7f4552433732313a206f70657261746f7220717565727920666f72206e6f6e657860008201527f697374656e7420746f6b656e0000000000000000000000000000000000000000602082015250565b7f3c2f746578743e3c2f7376673e00000000000000000000000000000000000000600082015250565b7f4552433732313a20617070726f76652063616c6c6572206973206e6f74206f7760008201527f6e6572206e6f7220617070726f76656420666f7220616c6c0000000000000000602082015250565b7f4552433732313a2062616c616e636520717565727920666f7220746865207a6560008201527f726f206164647265737300000000000000000000000000000000000000000000602082015250565b7f4552433732313a206f776e657220717565727920666f72206e6f6e657869737460008201527f656e7420746f6b656e0000000000000000000000000000000000000000000000602082015250565b7f45524337323155524953746f726167653a2055524920736574206f66206e6f6e60008201527f6578697374656e7420746f6b656e000000000000000000000000000000000000602082015250565b7f227d000000000000000000000000000000000000000000000000000000000000600082015250565b7f4552433732313a206d696e7420746f20746865207a65726f2061646472657373600082015250565b7f45524337323155524953746f726167653a2055524920717565727920666f722060008201527f6e6f6e6578697374656e7420746f6b656e000000000000000000000000000000602082015250565b7f4552433732313a20617070726f76656420717565727920666f72206e6f6e657860008201527f697374656e7420746f6b656e0000000000000000000000000000000000000000602082015250565b7f4552433732314d657461646174613a2055524920717565727920666f72206e6f60008201527f6e6578697374656e7420746f6b656e0000000000000000000000000000000000602082015250565b7f7b226e616d65223a202200000000000000000000000000000000000000000000600082015250565b7f4552433732313a20617070726f76616c20746f2063757272656e74206f776e6560008201527f7200000000000000000000000000000000000000000000000000000000000000602082015250565b7f46495253545f574f524400000000000000000000000000000000000000000000600082015250565b7f646174613a6170706c69636174696f6e2f6a736f6e3b6261736536342c000000600082015250565b7f4552433732313a207472616e736665722063616c6c6572206973206e6f74206f60008201527f776e6572206e6f7220617070726f766564000000000000000000000000000000602082015250565b613b7381613283565b8114613b7e57600080fd5b50565b613b8a81613295565b8114613b9557600080fd5b50565b613ba1816132a1565b8114613bac57600080fd5b50565b613bb8816132ed565b8114613bc357600080fd5b5056fe416e204e465420772f20494420257320686173206265656e206d696e74656420746f2025734142434445464748494a4b4c4d4e4f505152535455565758595a6162636465666768696a6b6c6d6e6f707172737475767778797a303132333435363738392b2fa2646970667358221220d2981806fe25ad9ac7ee0b761359f69989aee4444c475bc4b7b64004e27d4e7964736f6c634300080400333c73766720786d6c6e733d27687474703a2f2f7777772e77332e6f72672f323030302f73766727207072657365727665417370656374526174696f3d27784d696e594d696e206d656574272076696577426f783d273020302033353020333530273e3c7374796c653e2e62617365207b2066696c6c3a2077686974653b20666f6e742d66616d696c793a2073657269663b20666f6e742d73697a653a20323470783b207d3c2f7374796c653e3c726563742077696474683d273130302527206865696768743d2731303025272066696c6c3d27626c61636b27202f3e3c7465787420783d273530252720793d273530252720636c6173733d27626173652720646f6d696e616e742d626173656c696e653d276d6964646c652720746578742d616e63686f723d276d6964646c65273e",
  "linkReferences": {},
  "deployedLinkReferences": {}
}